:100000000C942A000C9447000C9447000C94470071
:100010000C9447000C9447000C9447000C94470044
:100020000C9447000C9447000C9447000C94470034
:100030000C9447000C9447000C9447000C94470024
:100040000C9447000C9447000C9447000C94470014
:100050000C94470011241FBECFE5D8E0DEBFCDBF12
:1000600010E0A0E6B0E0E4EBF7E002C005900D92EE
:10007000A239B107D9F720E0A2E9B0E001C01D9292
:10008000A639B207E1F70E9463010C94D8030C94DF
:10009000000084B3816084BB089585B3816085BB13
:1000A00080E58A95F1F785B38E7F85BB089580E062
:1000B00090E0DC0105C099990AC00196A11DB11D0F
:1000C000803C27E2920729E0A207B105A0F3803C1B
:1000D0009742A940B10579F11FBC82E08EBD1DBCDD
:1000E0001CBC80E090E0DC010AC0999B0FC02CB5DD
:1000F0003DB521363A4E50F40196A11DB11D803C0C
:1001000027E2920729E0A207B10578F3803C9742E5
:10011000A940B10599F08CB59DB5A0E0B0E01EBC3A
:1001200081362AEE9207A105B10558F4B695A79538
:100130009795879508958FEF9FEF08958EEF9FEF26
:1001400008958EEF9FEF089592B39F70282F207F20
:10015000922B92BB92B39E7F92BB92B3926092BB62
:1001600035E03A95F1F7000092B39D7F92BBEFE145
:10017000F3E03197F1F700C0000022B3F0E18F9F68
:10018000C0011124922F9F70892B82BB82B38260A1
:1001900082BB35E03A95F1F7000082B38D7F82BBD8
:1001A0008FE39FE10197F1F700C0000008958FEF02
:1001B00081BB8FE59AEE0197F1F700C0000082E065
:1001C0000E94A40088E20E94A4008CE00E94A40087
:1001D00086E00E94A40081E00E94A4008FE39FE1DA
:1001E0000197F1F700C00000089581E00E94A4008B
:1001F0008FE39FE10197F1F700C0000080E80E94C3
:10020000A4000895FC0160E070E034C082B38F70F8
:10021000907F982B92BB82B3816082BB82B3826055
:1002200082BB85E08A95F1F7000082B38D7F82BBA7
:100230008FE193E00197F1F700C0000042B39C9179
:1002400080E1989F90011124942F9F70292B22BB4D
:1002500092B3926092BB95E09A95F1F7000092B349
:100260009D7F92BB8FE39FE10197F1F700C00000F3
:100270006F5F7F4FDF01A60FB71F9C919111C6CF13
:100280000895CF93DF9300D0CDB7DEB790E8998380
:1002900090EC9A83E62FF0E0319721E030E02C0FCC
:1002A0003D1FE20FF31F9081890F81500E94A4002F
:1002B0008FE891E00197F1F700C000000F900F90D8
:1002C000DF91CF910895CF93DF9300D000D0CDB7C9
:1002D000DEB78FEF8ABB0E94D7002FEF81EE94E04C
:1002E000215080409040E1F700C000000E9449008A
:1002F0000E944D000E9457008F3F2FEF920749F454
:1003000061E081E00E94410180E690E00E940201EC
:10031000EFCFBC0180E090E00E94A80226E933E420
:100320004BE05DE30E94360320E030E040E05FE315
:100330000E9436039B01AC0160E070E088E492E427
:100340000E9405020E9472027093950060939400CF
:1003500020919200309193002617370711F00E94E8
:10036000F50061E081E00E94410187E690E00E9493
:10037000020161E08CE00E9441014AE0BE016F5F32
:100380007F4F80919400909195000E94A303CE012D
:1003900001960E94020161E08EE00E94410183E724
:1003A00090E00E94020180919400909195009093BA
:1003B0009300809392008FEF96E721E08150904068
:1003C0002040E1F700C000008091940090919500DA
:1003D0000A9754F462E081E00E94410187E790E0CF
:1003E0000E94020181E08BBB809194009091950066
:1003F0000A970CF47DCF62E081E00E94410184E81D
:1004000090E00E9402011BBA73CF5058BB27AA2765
:100410000E941D020C94FC020E94EE0238F00E9421
:10042000F50220F039F49F3F19F426F40C94EB0206
:100430000EF4E095E7FB0C94E502E92F0E940D0312
:1004400058F3BA17620773078407950720F079F409
:10045000A6F50C942F030EF4E0950B2EBA2FA02DC9
:100460000B01B90190010C01CA01A0011124FF2761
:10047000591B99F0593F50F4503E68F11A16F0405C
:10048000A22F232F342F4427585FF3CF469537955B
:100490002795A795F0405395C9F77EF41F16BA0B20
:1004A000620B730B840BBAF09150A1F0FF0FBB1FCE
:1004B000661F771F881FC2F70EC0BA0F621F731F17
:1004C000841F48F4879577956795B795F7959E3F74
:1004D00008F0B0CF9395880F08F09927EE0F979505
:1004E000879508950E9479026894B1110C943003A5
:1004F00008950E94150388F09F5798F0B92F992707
:10050000B751B0F0E1F0660F771F881F991F1AF0FE
:10051000BA95C9F714C0B13091F00E942F03B1E031
:1005200008950C942F03672F782F8827B85F39F030
:10053000B93FCCF3869577956795B395D9F73EF497
:1005400090958095709561957F4F8F4F9F4F08953F
:10055000E89409C097FB3EF490958095709561955D
:100560007F4F8F4F9F4F9923A9F0F92F96E9BB2713
:100570009395F695879577956795B795F111F8CF8F
:10058000FAF4BB0F11F460FF1BC06F5F7F4F8F4FFA
:100590009F4F16C0882311F096E911C0772321F0F0
:1005A0009EE8872F762F05C0662371F096E8862F88
:1005B00070E060E02AF09A95660F771F881FDAF7DF
:1005C000880F9695879597F9089597F99F6780E822
:1005D00070E060E008959FEF80EC089500240A9495
:1005E0001616170618060906089500240A9412160E
:1005F0001306140605060895092E0394000C11F441
:10060000882352F0BB0F40F4BF2B11F460FF04C0ED
:100610006F5F7F4F8F4F9F4F089557FD9058440F46
:10062000551F59F05F3F71F04795880F97FB991F51
:1006300061F09F3F79F0879508951216130614060E
:10064000551FF2CF4695F1DF08C01616170618069B
:10065000991FF1CF86957105610508940895E89476
:10066000BB2766277727CB0197F908950E94490396
:100670000C94FC020E94EE0238F00E94F50220F079
:10068000952311F00C94E5020C94EB0211240C94C8
:1006900030030E940D0370F3959FC1F3950F50E056
:1006A000551F629FF001729FBB27F00DB11D639F24
:1006B000AA27F00DB11DAA1F649F6627B00DA11DCA
:1006C000661F829F2227B00DA11D621F739FB00D70
:1006D000A11D621F839FA00D611D221F749F3327E0
:1006E000A00D611D231F849F600D211D822F762F79
:1006F0006A2F11249F5750409AF0F1F088234AF056
:10070000EE0FFF1FBB1F661F771F881F91505040C1
:10071000A9F79E3F510580F00C94E5020C9430033C
:100720005F3FE4F3983ED4F3869577956795B79548
:10073000F795E7959F5FC1F7FE2B880F911D969562
:10074000879597F90895BB274A3031F4992322F40D
:10075000BDE2909581959F4F0C94AF03BB27FB01A1
:100760005527AA27880F991FAA1FA41710F0A41BAA
:1007700083955051B9F7A05DAA3308F0A95DA19304
:10078000009779F7B111B1931192CB010C94C80382
:10079000DC01FC01672F71917723E1F7329704C0E8
:1007A0007C916D9370836291AE17BF07C8F3089573
:0407B000F894FFCFEB
:1007B4004572726F7221005761746572206C7620E5
:1007C4003D200020636D005741544552204C4F5743
:1007D40021212100454E4F55474820574154455249
:0207E400000013
:00000001FF
