:100000000C942A000C9447000C9447000C94470071
:100010000C9447000C9447000C9447000C94470044
:100020000C9447000C9447000C9447000C94470034
:100030000C9447000C9447000C9447000C94470024
:100040000C9447000C9447000C9447000C94470014
:100050000C94470011241FBECFE5D8E0DEBFCDBF12
:1000600010E0A0E6B0E0EAE8F6E002C005900D92EC
:10007000A837B107D9F720E0A8E7B0E001C01D928A
:10008000AC37B207E1F70E9463010C9443030C9470
:10009000000084B3816084BB089585B3816085BB13
:1000A00080E58A95F1F785B38E7F85BB089580E062
:1000B00090E0DC0105C099990AC00196A11DB11D0F
:1000C000803C27E2920729E0A207B105A0F3803C1B
:1000D0009742A940B10579F11FBC82E08EBD1DBCDD
:1000E0001CBC80E090E0DC010AC0999B0FC02CB5DD
:1000F0003DB521363A4E50F40196A11DB11D803C0C
:1001000027E2920729E0A207B10578F3803C9742E5
:10011000A940B10599F08CB59DB5A0E0B0E01EBC3A
:1001200081362AEE9207A105B10558F4B695A79538
:100130009795879508958FEF9FEF08958EEF9FEF26
:1001400008958EEF9FEF089592B39F70282F207F20
:10015000922B92BB92B39E7F92BB92B3926092BB62
:1001600035E03A95F1F7000092B39D7F92BBEFE145
:10017000F3E03197F1F700C0000022B3F0E18F9F68
:10018000C0011124922F9F70892B82BB82B38260A1
:1001900082BB35E03A95F1F7000082B38D7F82BBD8
:1001A0008FE39FE10197F1F700C0000008958FEF02
:1001B00081BB8FE59AEE0197F1F700C0000082E065
:1001C0000E94A40088E20E94A4008CE00E94A40087
:1001D00086E00E94A40081E00E94A4008FE39FE1DA
:1001E0000197F1F700C00000089581E00E94A4008B
:1001F0008FE39FE10197F1F700C0000080E80E94C3
:10020000A4000895FC0160E070E034C082B38F70F8
:10021000907F982B92BB82B3816082BB82B3826055
:1002200082BB85E08A95F1F7000082B38D7F82BBA7
:100230008FE193E00197F1F700C0000042B39C9179
:1002400080E1989F90011124942F9F70292B22BB4D
:1002500092B3926092BB95E09A95F1F7000092B349
:100260009D7F92BB8FE39FE10197F1F700C00000F3
:100270006F5F7F4FDF01A60FB71F9C919111C6CF13
:100280000895CF93DF9300D0CDB7DEB790E8998380
:1002900090EC9A83E62FF0E0319721E030E02C0FCC
:1002A0003D1FE20FF31F9081890F81500E94A4002F
:1002B0008FE891E00197F1F700C000000F900F90D8
:1002C000DF91CF910895CF93DF9300D000D0CDB7C9
:1002D000DEB78FEF8ABB0E94D7002FEF81EE94E04C
:1002E000215080409040E1F700C000000E9449008A
:1002F0000E944D000E9457008F3F2FEF920749F454
:1003000061E081E00E94410180E690E00E940201EC
:10031000EFCFBC0180E090E00E94130226E933E4B5
:100320004BE05DE30E94790220E030E040E05FE3D3
:100330000E9479020E94DD0170937B0060937A0035
:1003400020917800309179002617370711F00E942C
:10035000F50061E081E00E94410187E690E00E94A3
:10036000020161E08CE00E9441014AE0BE016F5F42
:100370007F4F80917A0090917B000E940E03CE0106
:1003800001960E94020161E08EE00E94410183E734
:1003900090E00E94020180917A0090917B009093FE
:1003A0007900809378008FEF96E721E081509040AC
:1003B0002040E1F700C000009BCF0E94E401689458
:1003C000B1110C94730208950E94580288F09F574F
:1003D00098F0B92F9927B751B0F0E1F0660F771F69
:1003E000881F991F1AF0BA95C9F714C0B13091F05F
:1003F0000E947202B1E008950C947202672F782F68
:100400008827B85F39F0B93FCCF386957795679523
:10041000B395D9F73EF490958095709561957F4F8F
:100420008F4F9F4F0895E89409C097FB3EF4909535
:100430008095709561957F4F8F4F9F4F9923A9F0BD
:10044000F92F96E9BB279395F6958795779567954C
:10045000B795F111F8CFFAF4BB0F11F460FF1BC090
:100460006F5F7F4F8F4F9F4F16C0882311F096E923
:1004700011C0772321F09EE8872F762F05C06623D1
:1004800071F096E8862F70E060E02AF09A95660F8A
:10049000771F881FDAF7880F9695879597F9089543
:1004A00057FD9058440F551F59F05F3F71F0479525
:1004B000880F97FB991F61F09F3F79F0879508950A
:1004C000121613061406551FF2CF4695F1DF08C029
:1004D000161617061806991FF1CF86957105610546
:1004E00008940895E894BB2766277727CB0197F9EE
:1004F00008950E948C020C94FD020E94EF0238F0D5
:100500000E94F60220F0952311F00C94E6020C9460
:10051000EC0211240C9473020E94500270F3959F18
:10052000C1F3950F50E0551F629FF001729FBB27EA
:10053000F00DB11D639FAA27F00DB11DAA1F649F86
:100540006627B00DA11D661F829F2227B00DA11D39
:10055000621F739FB00DA11D621F839FA00D611DBF
:10056000221F749F3327A00D611D231F849F600DE0
:10057000211D822F762F6A2F11249F5750409AF009
:10058000F1F088234AF0EE0FFF1FBB1F661F771F95
:10059000881F91505040A9F79E3F510580F00C9460
:1005A000E6020C9473025F3FE4F3983ED4F3869521
:1005B00077956795B795F795E7959F5FC1F7FE2B00
:1005C000880F911D9695879597F9089597F99F67DC
:1005D00080E870E060E008959FEF80EC08950024CB
:1005E0000A941616170618060906089500240A9498
:1005F00012161306140605060895092E0394000C1E
:1006000011F4882352F0BB0F40F4BF2B11F460FFAC
:1006100004C06F5F7F4F8F4F9F4F0895BB274A30B5
:1006200031F4992322F4BDE2909581959F4F0C946B
:100630001A03BB27FB015527AA27880F991FAA1F5A
:10064000A41710F0A41B83955051B9F7A05DAA33ED
:1006500008F0A95DA193009779F7B111B1931192B8
:10066000CB010C943303DC01FC01672F71917723DC
:10067000E1F7329704C07C916D9370836291AE175D
:0A068000BF07C8F30895F894FFCFF8
:10068A004572726F7221005761746572206C762010
:08069A003D200020636D00000B
:00000001FF
