:100000000C9446000C9463000C9463000C94630001
:100010000C9463000C9463000C9463000C946300D4
:100020000C9463000C9463000C9463000C946300C4
:100030000C9463000C9463000C9463000C946300B4
:100040000C9463000C9463000C9463000C946300A4
:100050000C9463000C9463000C9463000C94630094
:100060000C9463000C9463000C9463000C94630084
:100070000C9463000C9463000C9463000C94630074
:100080000C9463000C9463000C94630011241FBE55
:10009000CFEFD0E1DEBFCDBF11E0A0E0B1E0E2EDF7
:1000A000F6E002C005900D92A233B107D9F721E026
:1000B000A2E3B1E001C01D92A833B207E1F70E94AC
:1000C0006D010C9467030C94000084B3816084BBC1
:1000D000089585B3816085BB85E08A95F1F785B386
:1000E0008E7F85BB089580E090E0DC0105C0999982
:1000F0000AC00196A11DB11D803C27E2920729E0AC
:10010000A207B105A0F3803C9742A940B10579F15F
:100110001FBC82E08EBD1DBC1CBC80E090E0DC01F9
:100120000AC0999B0FC02CB53DB521363A4E50F40C
:100130000196A11DB11D803C27E2920729E0A2078C
:10014000B10578F3803C9742A940B10599F08CB590
:100150009DB5A0E0B0E01EBC81362AEE9207A10555
:10016000B10558F4B695A7959795879508958FEFA3
:100170009FEF08958EEF9FEF08958EEF9FEF089504
:1001800092B39F70282F207F922B92BB92B39E7FB9
:1001900092BB92B3926092BB000092B39D7F92BBE0
:1001A00032E43A95F1F700C022B330E1839FC001F9
:1001B0001124922F9F70892B82BB82B3826082BBF5
:1001C000000082B38D7F82BB83EF91E00197F1F74E
:1001D00000C0000008958FEF81BB85EA9EE0019783
:1001E000F1F700C0000082E00E94C00088E20E9497
:1001F000C0008CE00E94C00086E00E94C00081E048
:100200000E94C00083EF91E00197F1F700C0000069
:10021000089581E00E94C00083EF91E00197F1F71B
:1002200000C0000080E80E94C0000895FC0160E06A
:1002300070E02CC082B38F70907F982B92BB82B3FA
:10024000816082BB82B3826082BB000082B38D7FFB
:1002500082BB82E48A95F1F700C042B39C9180E1B1
:10026000989F90011124942F9F70292B22BB92B349
:10027000926092BB000092B39D7F92BB83EF91E0AE
:100280000197F1F700C000006F5F7F4FDF01A60FFD
:10029000B71F9C919111CECF0895CF93DF9300D0DB
:1002A000CDB7DEB790E8998390EC9A83E62FF0E023
:1002B000319721E030E02C0F3D1FE20FF31F9081BA
:1002C000890F81500E94C00031E23A95F1F7000099
:1002D0000F900F90DF91CF910895CF93DF9300D0CF
:1002E00000D0CDB7DEB78FEF8ABB0E94EB0087EA64
:1002F00091E60197F1F700C000000E9465000E949E
:1003000069000E9473008F3F2FEF920749F461E06C
:1003100081E00E944D0180E091E00E941601EFCF44
:10032000BC0180E090E00E94370226E933E44BE014
:100330005DE30E949D0220E030E040E05FE30E9428
:100340009D020E9401027093370160933601209153
:100350003401309135012617370711F00E94090149
:1003600061E081E00E944D0187E091E00E9416016A
:1003700061E08CE00E944D014AE0BE016F5F7F4F5B
:1003800080913601909137010E943203CE0101968F
:100390000E94160161E08EE00E944D0183E191E030
:1003A0000E9416018091360190913701909335019A
:1003B000809334018BE49DE10197F1F700C00000C8
:1003C00080913601909137010A9754F462E081E000
:1003D0000E944D0187E191E00E94160181E08BBBF4
:1003E00080913601909137010A970CF488CF62E032
:1003F00081E00E944D0184E291E00E9416011BBA47
:100400007ECF0E9408026894B1110C94970208955F
:100410000E947C0288F09F5798F0B92F9927B75116
:10042000B0F0E1F0660F771F881F991F1AF0BA9598
:10043000C9F714C0B13091F00E949602B1E008955E
:100440000C949602672F782F8827B85F39F0B93F50
:10045000CCF3869577956795B395D9F73EF490954B
:100460008095709561957F4F8F4F9F4F0895E894C9
:1004700009C097FB3EF490958095709561957F4FEC
:100480008F4F9F4F9923A9F0F92F96E9BB2793959A
:10049000F695879577956795B795F111F8CFFAF4AA
:1004A000BB0F11F460FF1BC06F5F7F4F8F4F9F4FDB
:1004B00016C0882311F096E911C0772321F09EE839
:1004C000872F762F05C0662371F096E8862F70E09F
:1004D00060E02AF09A95660F771F881FDAF7880F79
:1004E0009695879597F9089557FD9058440F551F95
:1004F00059F05F3F71F04795880F97FB991F61F0A6
:100500009F3F79F087950895121613061406551F1C
:10051000F2CF4695F1DF08C0161617061806991F88
:10052000F1CF86957105610508940895E894BB277D
:1005300066277727CB0197F908950E94B0020C94A3
:1005400021030E94130338F00E941A0320F0952320
:1005500011F00C940A030C94100311240C949702CC
:100560000E94740270F3959FC1F3950F50E0551FE0
:10057000629FF001729FBB27F00DB11D639FAA27F8
:10058000F00DB11DAA1F649F6627B00DA11D661F47
:10059000829F2227B00DA11D621F739FB00DA11D68
:1005A000621F839FA00D611D221F749F3327A00D22
:1005B000611D231F849F600D211D822F762F6A2FBE
:1005C00011249F5750409AF0F1F088234AF0EE0F23
:1005D000FF1FBB1F661F771F881F91505040A9F750
:1005E0009E3F510580F00C940A030C9497025F3FE4
:1005F000E4F3983ED4F3869577956795B795F7958C
:10060000E7959F5FC1F7FE2B880F911D9695879503
:1006100097F9089597F99F6780E870E060E0089582
:100620009FEF80EC089500240A941616170618060A
:100630000906089500240A941216130614060506E6
:100640000895092E0394000C11F4882352F0BB0F77
:1006500040F4BF2B11F460FF04C06F5F7F4F8F4FDA
:100660009F4F0895BB274A3031F4992322F4BDE20D
:10067000909581959F4F0C943E03BB27FB01552716
:10068000AA27880F991FAA1FA41710F0A41B8395EF
:100690005051B9F7A05DAA3308F0A95DA193009766
:1006A00079F7B111B1931192CB010C945703DC018E
:1006B000FC01672F71917723E1F7329704C07C9199
:1006C0006D9370836291AE17BF07C8F30895F894D5
:0206D000FFCF5A
:1006D2004572726F7221005761746572206C7620C8
:1006E2003D200020636D005741544552204C4F5726
:1006F20021212100454E4F5547482057415445522C
:020702000000F5
:00000001FF
